:020000040000FA
:040000000128FE2FA6
:100F2E0087319E2787318731B427873101286A3070
:100F3E0021009900843022009D0023008C01F8309E
:100F4E0021008C0024008C0127008C0125008C01CF
:100F5E0026008C0122008C0108000730F400563068
:100F6E00F3003430F2002130F100F701F801F50101
:100F7E00F60107307105F00020000C08F8397004F6
:100F8E008C000330F000DA30890BCB2FF00BCB2F17
:100F9E00003220000C08F8398C000630F000B63014
:100FAE00890BD72FF00BD72F0130F5070030F63D08
:100FBE00013076022E3003197502031CE72FE82F3D
:100FCE00C02F0430F436F30CF20CF10C890BE92F20
:100FDE000130F7070030F83D003078020830031971
:100FEE007702031CFB2FFC2FBE2FB42F080020000E
:020FFE00972F2B
:020000040001F9
:04000E00E43FFF3E8E
:00000001FF
